:020000040800F2
:10000000B80700205502000889170008811700086A
:10001000851700084D0400089D1900080000000025
:100020000000000000000000000000009117000820
:1000300051040008000000008D1700089517000803
:100040006F0200086F0200086F0200086F020008CC
:100050006F0200086F0200086F0200086F020008BC
:100060006F020008550400086F0200086F020008C4
:100070006F0200086F0200086F0200086F0200089C
:100080006F0200086F0200086F0200086F0200088C
:100090006F0200086F0200086F0200086F0200087C
:1000A0006F0200086F0200086F0200086F0200086C
:1000B0006F0200086F0200086F0200086F0200085C
:1000C0006F0200086F0200086F0200086F0200084C
:1000D0006F0200086F0200086F0200086F0200083C
:1000E0006F0200086F0200086F0200086F0200082C
:1000F0006F0200086F0200086F0200086F0200081C
:100100006F0200086F0200086F0200086F0200080B
:100110006F0200086F020008551800086F020008FF
:100120006F0200086F0200086F0200086F020008EB
:100130006F0200086F0200086F0200086F020008DB
:100140006F0200086F0200086F0200086F020008CB
:100150006F0200086F0200086F0200086F020008BB
:100160006F0200086F0200086F0200086F020008AB
:100170006F0200086F0200086F0200080000000014
:100180006F0200086F02000800F002F800F052F859
:1001900014A696E8000CB244B344DA4501D100F04D
:1001A00049F8BAE80F000FA696E83000A5EB040561
:1001B00004EB0607AAEB0704A7F101074FEA1515A0
:1001C0004FEA3414A4F10104AC4201D300F032F838
:1001D00013F0010F18BFFB1A43F0010300F001F800
:1001E000DBE71847041F0000241F0000103A24BF5B
:1001F00078C878C1FAD8520724BF30C830C144BF8C
:1002000004680C6070470000704700000023002461
:1002100000250026103A28BF78C1FBD8520728BF16
:1002200030C148BF0B6070471FB501F033FF1FBDE1
:1002300010B510BD00F0D0F81146FFF7F5FF01F042
:10024000AFFB00F0EEF803B4FFF7F2FF03BC00F0E1
:10025000F5F800000948804709480047FEE7FEE737
:10026000FEE7FEE7FEE7FEE7FEE7FEE7FEE7FEE766
:1002700004480549054A064B70470000411800082C
:1002800089010008B8010020B8070020B803002049
:10029000B803002053EA020C00F069802DE9F04B0E
:1002A0004FF00006002B1FBFB3FA83F503FA05F4E5
:1002B00024FA05F65E4012BF1643B2FA82F502FA3E
:1002C00005F4C5F120051EBF22FA05FC44EA0C0422
:1002D000203556EA044C4FEA144418BF641C4FF012
:1002E00000084FF00009904271EB030C39D300294C
:1002F00019BFB1FA81F701FA07F6B0FA80F700FAF0
:1003000007F6C7F120071EBF20FA07FC46EA0C06D5
:100310002037B6FBF4FCA7EB0507103F07F01F0BD7
:10032000CBF120062CFA06F60CFA0BFB44BFB346C1
:100330000026202FA4BF5E464FF0000B5BEA060CA0
:1003400008BF4FF0010B19EB0B0948EB0608ABFB9C
:10035000027C06FB02CC0BFB03CCC01B71EB0C0137
:10036000C1E70B46024641464846BDE8F08B13B54F
:10037000084318BF4FF0FF300146AFF30080BDE8DF
:100380001C4070474FF0000200B513469446964655
:10039000203922BFA0E80C50A0E80C50B1F1200198
:1003A000BFF4F7AF090728BFA0E80C5048BF0CC046
:1003B0005DF804EB890028BF40F8042B08BF7047A4
:1003C00048BF20F8022B11F0804F18BF00F8012B16
:1003D0007047704770477047754600F02BF8AE467F
:1003E00005006946534620F00700854618B020B541
:1003F000FFF73EFFBDE820404FF000064FF000073A
:100400004FF000084FF0000BAC46ACE8C009ACE878
:10041000C009ACE8C009ACE8C00921F007018D466D
:10042000704710B50446AFF300802046BDE8104089
:10043000FFF709BF0048704710000020014918204D
:10044000ABBEFEE72600020070470000FEE700009A
:1004500070470000082000F02BB80000082818BFE3
:10046000704710B500F00CF9044641F60000C4F2E4
:100470000200082100F0F8F8002840F27000C2F2F3
:100480000000014606D051F8102FA21A322A09D3D3
:10049000002205E051F8142FA21A312A02D90122B4
:1004A0000C6042700021C161BDE81040704700003F
:1004B00043F61441C4F201010A68024214BF086005
:1004C0007047FFF7CBBF00002DE9F04F83B000F17C
:1004D000200200F13E4741F60045009207F1FF7708
:1004E000C4F2020508224FEAB726A84208BF072235
:1004F00000254FF000084FF00009072E38BF4FEAE3
:10050000B72201920AE000BF09F1010908F10208CF
:10051000B9F1100F05F1040500F0A2800F68012267
:1005200002FA09FE17EA0E0AEED0D1F804C003223F
:100530000CF003077E1E02FA08F4012E6FEA040B8A
:1005400012D88468CE6804EA0B0406FA08F634432D
:100550008460446824EA0E06CCF3001404FA09F41B
:100560002643466004E000BF032F01D103271EE0AD
:10057000C6688C6806EA0B0604FA08F42643022FC4
:10058000C66014D16FF00302009E02EA590756F8C4
:1005900007C005F01C040F220B69A2402CEA0202DE
:1005A000A3401A43F251D1F804C00CF003070268CB
:1005B00007FA08F302EA0B021A431CF4403F0260F8
:1005C000A2D0002243F644030292C4F202031A6846
:1005D00043F6004442F480421A601A68C4F20104EF
:1005E00002F480420292029A29F003024FF6084C6C
:1005F0002244CFF6FF7C52F80C3005F00C070F2692
:10060000BE40B343019E06FA07F73B4342F80C3065
:10061000A2684B6842EA0A0743F60C4CDE0258BF58
:1006200022EA0A07A760C4F2010CDCF800209E024F
:1006300042EA0A0758BF22EA0A07CCF8007062684B
:100640009E0342EA0A0758BF22EA0A076760226847
:10065000DB0342EA0A0758BF22EA0A07276053E78A
:1006600003B0BDE8F08F00000069084018BF01200A
:1006700070470000002A08BF09048161704700002C
:1006800040F2B010C2F200000068704740F2000073
:1006900040F2B011C2F20000C2F2000100780A6814
:1006A000104408607047000080B543F60040C4F273
:1006B0000200016841F400710160016841F4806149
:1006C0000160016841F480710160032000F086F848
:1006D0000F2000F005F800F027F8002080BD000092
:1006E00070B540F20006C2F2000640F2080132780E
:1006F000C2F200014FF47A730968B3FBF2F20446C8
:10070000B1FBF2F1084600F06DFB0F2C4FF0010534
:1007100008D838B94FF0FF3021460022002500F0FC
:1007200031F87460284670BD82B0002043F6400165
:100730000190C4F202014A6842F480424A604A6869
:1007400002F480420192019A0090086840F08050C3
:100750000860086800F080500090009802B0704770
:10076000002848BF704700F01F01012202FA01F182
:100770001C2202EAD0004EF20012CEF2000281509A
:100780007047000010B54EF60C5CCEF2000CDCF8A1
:100790000030C3F3022E8EF00704042C28BF04247B
:1007A000BEF103034FF0FF3E0EFA04F438BF0023FE
:1007B000A14399400EFA03F39A43114300F00F024C
:1007C00000F160430901043A03F5644362440028E0
:1007D00048BF02F10C03197010BD00004EF60C5119
:1007E000CEF200010A684FF6FF031A4060F30A22B6
:1007F00042F0806040F0FD700860704747F20003EF
:10080000C4F200031A684EF6105C22F00302104393
:10081000CEF2000C1860DCF80000032940F0040060
:10082000CCF800000CD0012908D130BFDCF8000062
:1008300020F00400CCF80000704700BF40BF20BF8C
:1008400020BFDCF8000020F00400CCF80000704766
:10085000002804BF012070472DE9F04143F6080845
:10086000C4F202080446D8F8F8030D4600F0070069
:10087000814207D988F8F853D8F8F80300F0070048
:10088000A84277D12068810717D5410705D5D8F848
:10089000001041F4E051C8F80010010705D5D8F860
:1008A000001041F46041C8F80010D8F80010A268A8
:1008B00021F0F0011143C8F80010C00740D1D8F86A
:1008C000F80300F00700854207D288F8F853D8F8FB
:1008D000F80300F00700A8424CD12068410707D573
:1008E000D8F80010E26821F4E0511143C8F8001074
:1008F000000708D5D8F80000216920F4604040EADC
:10090000C100C8F8000000F055F8D8F8001042F215
:10091000AE02C1F30311C0F60002515C40F20802BE
:1009200020FA01F140F20400C2F200000068C2F2B5
:1009300000021160FFF7D4FE0020BDE8F08100BF87
:100940006068811E022907D258F8081C89015CBF23
:100950000120BDE8F08111E0012807D158F8081CFA
:1009600089035CBF0120BDE8F08107E058F8081C4E
:10097000890703D40120BDE8F08100BFD8F800103A
:1009800021F003010843C8F80000FFF779FE06468E
:1009900041F28837D8F80000616800F00C00B0EB35
:1009A000810F8CD0FFF76CFE801BB842F2D9032078
:1009B000BDE8F08110B543F60404C4F20204616896
:1009C000C1F3810142F20040C0F2F400DFE801F01F
:1009D00002040A0210BD00BF47F64000C0F27D10BD
:1009E00010BD00BF206821682368490247F6400116
:1009F000C0F27D1100F03F02C3F388105CBF42F2E9
:100A00000041C0F2F401A1FB00010023FFF742FC0A
:100A100021680222C1F3014102EB4101B0FBF1F078
:100A200010BD0000002804BF012070472DE9F041EF
:100A300082B00446007843F60006C007C4F20206FE
:100A40000CD0B06800F00C00042840F081803068C1
:100A5000800303D56068002800F068812078800753
:100A60001BD5B06810F00C0F09D0B06800F00C0076
:100A7000082840F087807068400200F18380306869
:100A8000800703D5E068012840F050813068216973
:100A900020F0F80040EAC10030602078000713D44D
:100AA000207840072AD4A569002D00F03A81B0686B
:100AB00000F00C00082840F0A580012D40F00E81C8
:100AC000012002B0BDE8F0816069002800F082805A
:100AD0000020C4F247200121C0F8801EFFF7D0FD9E
:100AE000054600BF706F8007DAD4FFF7C9FD401BD1
:100AF0000228F7D9032002B0BDE8F081306C5FEA2C
:100B0000C0080AD400200190306C40F0805030645E
:100B1000306C00F080500190019847F20007C4F259
:100B200000073868C00547D4386840F480703860E2
:100B3000FFF7A6FD054600BF3868C0053CD4FFF7A7
:100B40009FFD401B0228F7D9032002B0BDE8F081C9
:100B5000B06800F00C00082803D1706840023FF52F
:100B600076AF61683068B1F5803F07D0B1F5A02F4E
:100B700040F09A8040F480203060306840F480304B
:100B800030609AE0E068002840F20000C4F247209C
:100B90005CD001210160FFF773FD054630688007D6
:100BA0003FF574AFFFF76CFD401B0228F6D9032018
:100BB00002B0BDE8F08100BFA168306F012905D007
:100BC000052955D140F004003067306F40F0010036
:100BD000306756E00020C4F247200021C0F8801E94
:100BE000FFF74EFD054600BF706F80077FF558AFD9
:100BF000FFF746FD401B0228F6D9032002B0BDE8EE
:100C0000F08100BF0027C4F2472700203866FFF7B5
:100C100037FD022D05460DD13068800140F18A80F4
:100C2000FFF72EFD401B02284FF00300F4D902B05D
:100C3000BDE8F0813068800173D5FFF721FD401BCE
:100C400002284FF00300F5D9F1E700BF0021016051
:100C5000FFF716FD054600BF306880077FF51DAF22
:100C6000FFF70EFD401B02284FF00300F4D9DEE72A
:100C700020F001003067306F002920F00400306759
:100C80007AD0FFF7FDFC054641F28837306F8007C8
:100C900000F18480FFF7F4FC401BB842F6D9032032
:100CA00002B0BDE8F08100BF20F4803030603068D1
:100CB000002920F4802030607AD0FFF7E1FC05465F
:100CC000306880033FF5CAAEFFF7DAFC401B6428AA
:100CD000F6D9032002B0BDE8F08100BF7068E16979
:100CE00000F480028A4221D1216A00F03F028A4248
:100CF0001CD147F6C071626A0140B1EB821F15D169
:100D0000A16A4FF6FF73C903994300F44032A1F57D
:100D100080318A420AD1E16A00F07060B0EB016F65
:100D200004D1002002B0BDE8F08100BF012002B074
:100D3000BDE8F08104F11C052FCD084340EA821084
:100D4000D9034FF6FF729143A1F5803140EA056067
:100D50000843706001203866FFF792FC044600BF2C
:100D600030688001DDD4FFF78BFC001B02284FF0B8
:100D70000300F5D95BE700BFFFF782FC054641F2AF
:100D8000883700BF306F800708D5FFF779FC401B1C
:100D9000B8424FF00300F5D949E700BFB8F1000FA2
:100DA0003FF581AE306C20F0805030647BE600BFB0
:100DB000FFF766FC054600BF306880037FF54EAE46
:100DC000FFF75EFC401B64284FF00300F4D92EE7C8
:100DD0004EF21000CEF20000016841F00201016005
:100DE00070470000411E0020B0EB116F1CBF0120B6
:100DF00070474EF21002CEF2000251604EF62351BF
:100E0000CEF20001F0230B70072190601160704753
:100E10004EF21000CEF20000016821F002010160E4
:100E200070470000704700007047000090F83C20B9
:100E3000012A4FF0020254D010B580F83D2002681C
:100E4000D2F804E0D2F808C00C682EF070032343F7
:100E500041F2FF74C4F20004A24253600EDC40F27F
:100E6000FF73C4F200039A4216DCB2F1804F2BD01C
:100E700040F20043C4F2000324E000BF40F2FF331D
:100E8000C4F201039A4213DC41F60003C4F20003EA
:100E90009A4219D0002313E040F60003C4F2000385
:100EA0009A4211D040F60043C4F200030AE000BFAA
:100EB00044F20003C4F201039A4205D040F2004319
:100EC000C4F201039A4204D149682CF0800319430B
:100ED00091600121002280F83D1080F83C20BDE89F
:100EE0001040104670470000002804BF01207047E2
:100EF00010B5044690F83D0028B9002084F83C0065
:100F0000204600F01FF8022084F83D002068211DD3
:100F100000F0A6FC012084F8460084F83E0084F826
:100F20003F0084F8400084F8410084F8420084F8CF
:100F3000430084F8440084F8450084F83D00002014
:100F400010BD000080B582B0006844F2FF31C4F2E9
:100F5000010188421ADC41F20001C4F2000188421A
:100F60002ED041F60041C4F20001884251D1002048
:100F7000019043F64000C4F20200016841F0800194
:100F80000160006800F0800041E000BF44F20041D1
:100F9000C4F2010188422DD044F60001C4F20101DF
:100FA000884236D10020019043F64000C4F202008E
:100FB000416841F480214160406800F4802026E0CF
:100FC0000020019043F64000C4F2020001680022B4
:100FD00041F0100101600068032100F01000019051
:100FE00001983620FFF7CEFB362002B0BDE88040E6
:100FF000FFF7B6BB0020019043F64000C4F20200A8
:10100000416841F400314160406800F400300190D3
:10101000019802B080BD000090F83D1001291CBF6E
:1010200001207047022180F83D10006841F2FF72F4
:10103000C168C4F20002904241F00101C1600DDCC0
:1010400040F2FF71C4F20001884215DCB0F1804F1C
:101050002AD040F20041C4F2000123E040F2FF3107
:10106000C4F20101884213DC41F60001C4F2000120
:10107000884219D0002113E040F60001C4F20001BB
:10108000884211D040F60041C4F200010AE000BFDE
:1010900044F20001C4F20101884205D040F200414F
:1010A000C4F20101884206D1816801F007010629D6
:1010B00004BF00207047016841F001010160002079
:1010C000704700000146006841F21113C26822F027
:1010D0000102C260026A1A4204D00122002081F893
:1010E0003D207047026A40F244431A42F5D102683B
:1010F00022F0010202600122002081F83D207047A9
:101100007047000070B504460068C5680669B107FD
:1011100016D515F0020113D06FF002010161012113
:1011200021778069800703D02046FFF7E9FF05E0BB
:10113000204600F0EBF8204600F02AFA0020207745
:10114000700719D515F0040016D020686FF004015F
:10115000016102212177806910F4407F04D020468C
:10116000FFF7CEFF06E000BF204600F0CFF8204694
:1011700000F00EFA00202077300717D515F0080090
:1011800014D020686FF00801016104212177C06943
:10119000800703D02046FFF7B3FF05E0204600F0AC
:1011A000B5F8204600F0F4F900202077F00619D5B4
:1011B00015F0100016D020686FF0100101610821B1
:1011C0002177C06910F4407F04D02046FFF798FFD4
:1011D00006E000BF204600F099F8204600F0D8F95C
:1011E00000202077F00718BF15F0010002D130066B
:1011F00009D412E020686FF001010161204600F07F
:10120000A7FA300609D515F0800006D020686FF0E7
:10121000800101612046FFF705FE700609D515F033
:10122000400006D020686FF040010161204600F0C8
:10123000A5FAB00658BF70BD15F0200008D021688F
:101240006FF0200220460A61BDE87040FFF7ECBD58
:1012500070BD000080B586B0006841F60042C4F25F
:10126000000200219042CDE90411CDE90211019163
:101270002AD044F60001C4F20101884212D044F29F
:101280000041C4F2010188423DD10020009043F6A4
:101290003000C4F20200016841F0200101600068E2
:1012A00040210BE00020009043F63000C4F2020021
:1012B000016841F0200101600068802100F02000F9
:1012C00000900098032010E043F630000091C4F233
:1012D0000200016841F02001016000684FF4807154
:1012E00000F0200000900098092001910221029155
:1012F0000021059041F20040CDE90311C4F2020043
:1013000001A9FFF7E1F806B080BD000070470000BA
:1013100090F83C30012B04BF022070474FEAB20224
:10132000032A00F2FF802DE9F043DFE802F003B169
:101330003F7F00BF036840F200461C6A1A6A24F02F
:10134000020422F001021A621A46D3F804C052F8CD
:1013500018EF8F6843F48065C4F20106B54244EA91
:10136000070405D1CF6824F00C0427F004073C43A0
:101370000F68B54206D1D1E905582CF440762E43CA
:1013800046EA080C2EF073063743C3F804C09F6189
:101390004F6809695F631C629F6947F008079F6196
:1013A0009F6927F004079F61B1E000BF036840F226
:1013B00000481C6A1A6A24F4007422F480721A62CB
:1013C0001A46D3F804C052F81CEF8F6843F48065C6
:1013D000C4F20108454544EA072408D1CF6840F229
:1013E000FF463F0224F4406427EA06063443D1F85E
:1013F0000090454506D1D1E905562CF440572E43BF
:1014000047EA061C2EF0730747EA0907C3F804C031
:10141000DF614F680969DF631C62DF6947F0080715
:10142000DF61DF6927F00407DF6170E0036840F2E5
:101430000045D3F820C01A6A43F4806722F4805232
:101440001A621A465C6852F81C8FD1F800E08E6868
:10145000C4F20105AF4204D14D6924F4804444EA4A
:1014600085142CF4005747EA063728F4E64646EA86
:101470000E265C60DE614E6809691E641F62DF69CA
:1014800047F40067DF61DF6927F48067DF613DE0D3
:10149000036840F200481C6A1A6A24F0200422F013
:1014A00010021A621A46D3F804C052F818EF8F6877
:1014B00043F48065C4F20108454544EA071407D1A6
:1014C000CF686FF0400624F0C00406EA07163443E4
:1014D000D1F80090454506D1D1E905562CF4406776
:1014E0002E4347EA860C2EF4E64747EA0927C3F85D
:1014F00004C09F614F6809699F631C629F6947F43C
:1015000000679F619F6927F480679F6109021368E4
:10151000194311600021BDE8F043002280F83C200F
:10152000084670470121002280F83C200846704799
:10153000002804BF0120704710B5044690F83D0014
:1015400028B9002084F83C00204600F01FF8022053
:1015500084F83D002068211D00F082F9012084F804
:10156000460084F83E0084F83F0084F8400084F888
:10157000410084F8420084F8430084F8440084F871
:10158000450084F83D00002010BD000070470000B9
:1015900070470000C1B1042908D0082914BF4122B6
:1015A0004022825C012A05D016E000BF3F22825C07
:1015B000012A11D10222082910D0042914BF80F871
:1015C000412080F83F200BE090F83E20012A03D113
:1015D000022280F83E2003E00120704780F840207E
:1015E000006801F01F010122036A02FA01F123EAF7
:1015F00001020262026A114341F2FF72C4F2000268
:10160000904201620CDC40F2FF71C4F2000188429A
:1016100014DCB0F1804F37D040F2004116E000BF3B
:1016200040F2FF31C4F20101884215DC41F60001AD
:10163000C4F20001884227D0002115E040F60001E5
:10164000C4F2000188421FD040F60041C4F20001FC
:10165000884219D01FE000BF44F20001C4F201012A
:10166000884211D040F20041C4F20101884212D1F7
:10167000416C40F2004340F48062C4F2010341F443
:1016800000419A42416406D1816801F007010629B0
:1016900004BF00207047016841F001010160002093
:1016A0007047000010B5026801F01F0E4FF0010CEA
:1016B000146A0CFA0EF324EA0303136240F20043A7
:1016C000D2F820C042F48064C4F201039C42C2F804
:1016D00020C009D1136A41F21114234204D1136AC4
:1016E00040F2444423420FD0136A41F211142342C2
:1016F00013D1136A40F2444423420ED1136823F0FD
:101700000103136009E000BF536C23F400435364EA
:10171000136A41F211142342EBD0082912D0042994
:101720000AD000294FF0010114BF80F8411080F861
:101730003E10002010BD00BF012180F83F100020A6
:1017400010BD00BF012180F84010002010BD000036
:10175000006841F20001C4F20001884218BF7047DE
:1017600040F27000C2F20000C1690131C161C1697B
:101770003C2924BF01210170704700007047000020
:10178000FEE70000FEE70000FEE7000070470000F3
:1017900070470000FEF77ABF70B592B006AC2046E5
:1017A0003021FEF7EFFD002543F640000595CDE919
:1017B0000355CDE901550095C4F2020001680226E7
:1017C00041F080510160006800F080500090009866
:1017D00047F200000095C4F20000016841F4804126
:1017E0000160006800F4804000900098012009909A
:1017F00010200A9008200E90A820CDE90F060420A2
:10180000119020460696CDE90C65FFF70BF918B14B
:1018100072B600BFFEE700BF0F20CDE901064FF40E
:10182000A05004904FF48050059001A80521039525
:10183000FFF70EF810B172B6FEE700BF12B070BD30
:101840004EF68850CEF20000016841F4700101604C
:101850007047000040F26810C2F20000FFF752BC6F
:10186000B0B540F6FF3E0568C4F2000E40F2004CF1
:101870007045C4F2010C25DCB0F1804F2FD040F24E
:101880000043C4F20003984229D040F60003C4F29A
:101890000003984223D041F6FF73C4F2000398423C
:1018A00028DC70453ADCB0F1804F5BD040F2004359
:1018B000C4F20003984255D040F60003C4F200037E
:1018C0004EE000BF40F60043C4F20003984206D049
:1018D000604504D00023C4F201039842DBD14B6879
:1018E00025F0700243EA020541F6FF73C4F20003DB
:1018F0009842D6DD43F6FF73C4F2010398421FDC21
:1019000042F20003C4F2000398422BD00023C4F239
:101910000103984226D0604524D028E040F60043D9
:10192000C4F2000398421DD041F60003C4F2000344
:10193000984217D041F60043C4F2000310E000BF04
:1019400044F20003C4F2010398420BD044F60003B2
:10195000C4F20103984205D044F20043C4F20103EB
:10196000984204D1CB6825F4407243EA02050A6824
:101970008C684B69C46240F480648262644504BF31
:1019800009690163026825F0800142F004021943ED
:101990000260012242610160B0BD0000FEE700006C
:1019A00092B043F6300740F2000B41F20006C4F259
:1019B0000207C4F2020BC4F20006FEF775FEFFF741
:1019C000EBFE00240A94CDE90844CDE906440194D5
:1019D000386806AD40F0200038603868294600F0CD
:1019E0002000019001980194386840F001003860AF
:1019F000386800F00100019001980194386840F0C7
:101A000040003860386800F040000190019801946F
:101A1000386840F002003860386800F00200019039
:101A20000198202006900220CDE9070401200A90A9
:101A300058460994FEF748FD082006904FF44410DC
:101A4000CDE907040BF5C0502946FEF73DFD0920FE
:101A500001210022FEF796FE0920FEF781FE40F2EA
:101A60006810C2F2000042F2CF0142F20F72CDE9DB
:101A70000644C0E90061C0E902428461FFF734FA1C
:101A800010B172B6FEE700BF40F26810C2F200006B
:101A900006A9FFF7CBF918B172B600BFFEE700BF89
:101AA00040F2700844F2004AC2F20008C4F2010A8F
:101AB0004046002140F820AFA72240F2E733CDE9AD
:101AC0000B11CDE90911C0E90121C0E903318161A0
:101AD000FFF70AFA10B172B6FEE700BF08F1200561
:101AE0002846FFF725FD18B172B600BFFEE700BF1C
:101AF00060200690002406A928460022CDE907446C
:101B00000A94FFF705FC18B172B600BFFEE700BFEC
:101B10002846FFF79FFB40F2D8000AF58061C2F229
:101B2000000040F2E733CDE90B44CDE90944A72298
:101B300080E81600C0E903348461FFF7D5F918B1D5
:101B400072B600BFFEE700BF40F2D800C2F200004C
:101B5000FFF7EEFC10B172B6FEE700BF6020069002
:101B600040F2D8000024C2F2000006A90022CDE90C
:101B700007440A94FFF7CCFB10B172B6FEE700BF32
:101B800040F2D800C2F20000FFF764FB40F22010E0
:101B900006F54061C2F2000040F2E733CDE90B44A4
:101BA000CDE90944532280E81600C0E9033484617A
:101BB000FFF79AF910B172B6FEE700BF40F22010AD
:101BC000C2F20000FFF7B4FC10B172B6FEE700BF2E
:101BD000602006900020CDE907000A9040F2201016
:101BE000C2F2000006A90022FFF792FB10B172B604
:101BF000FEE700BF40F22016C2F200063046FFF7B3
:101C000029FB28460021FFF7C5FC40F2D804C2F2A8
:101C1000000420460021FFF7BDFC30460021FFF7FD
:101C2000B9FCD8F820004FF47A7141632068416311
:101C30003068416340F26810C2F20000FFF7ECF92F
:101C400043F60440C4F20100016841F0080101605C
:101C5000FEF716FD4FF002090026C8F80C0098F8B0
:101C60000000012840F0D08033E000BFFEF708FDFF
:101C700048F21F51C5F2EB11A0FB0101C1F3801026
:101C80004042D8F8201000F47A70486321684FF47D
:101C90007A70486340F22011C2F20001096848637B
:101CA000DAF834004FF00209A8F8060044F63400D0
:101CB000C4F201000068A8F8080041F63440C4F2FC
:101CC00000000068A8F80A0098F80000012840F019
:101CD0009B80404650F8201F4FF47A724A63216877
:101CE00040F220164A63C2F2000631684A630021BE
:101CF000FFF7D8FC20460021FFF7D4FC3046002136
:101D0000FFF7D0FC40F26810C2F20000FFF7DAF9EA
:101D1000FFF77EF801200221FEF770FD0DF1180992
:101D2000484630210024FEF72DFB0594CDE90344FD
:101D3000CDE901440094386947F2000140F0805039
:101D400038613869C4F2000100F0805000900098BA
:101D500000940868022640F480400860086800F497
:101D60008040009000980120099010200A900820DF
:101D70000E90A820CDE90F06042011904846069643
:101D8000CDE90C64FEF74EFE002840F07F810F2065
:101D9000CDE901064FF4A05004904FF48050059017
:101DA00001A805210394FEF753FD00284FF000061B
:101DB00040F06E814FF00209FFF70AF82846002133
:101DC000FFF7E8FB40F2D804C2F2000420460021ED
:101DD000FFF7E0FB40F22010C2F200000021FFF705
:101DE000D9FB40F26810C2F20000FFF715F9C8F8FD
:101DF0001C6088F80060FEF743FCC8F80C0098F8F7
:101E0000000001283FF465AF98F8010078BBD8F8CE
:101E10001000D8F81410884229D9D8F81000D8F842
:101E20001410C8F81060401AB0F5FA6F1FD398F874
:101E3000020080F0010088F8020098F802000128F2
:101E400008D140F2D80488F80390C2F200040026BA
:101E50000DE000BF002688F8036088F80460FEF7F4
:101E60000FFC40F2D804C2F20004C8F80C0098F845
:101E700002000221002864D1202006900120CDE933
:101E800007060991584606A90A96FEF71DFB584613
:101E900020210022FEF7EEFB01960198C7281BD8EF
:101EA00000BF0198013001900198C72814D800BFE5
:101EB0000198013001900198C7280DD800BF019802
:101EC000013001900198C72806D800BF0198013061
:101ED00001900198C828E3D30120002408905846B7
:101EE00006A90794FEF7F0FA58462021FEF7BCFB3E
:101EF00040B9C72C04F10104F6D340F2D804C2F271
:101F0000000405E0322C40F2D804C2F2000418D3D9
:101F1000FEF7B6FBD8F81810411AB1F5967F10D32A
:101F2000C8F81800C8F81C6098F80300B0FA80F0F0
:101F3000400988F8030088F80460FEF7A1FBC8F8A0
:101F40000C0098F8030002283FF490AE012821D03D
:101F500000287FF4A5AEFEF793FBD8F80C10411AC9
:101F6000B1F5FA6F58D398F8041025230131CAB29D
:101F70005A43A1EB1223DBB25B0803EB1222920857
:101F8000A2EBC2020A4488F80420C8F80C00002121
:101F900049E000BFFEF774FBD8F80C10421A98F81D
:101FA0000410B2F5FA6F11D30131CAB225235A4396
:101FB000A1EB1223DBB25B0803EB12229208A2EB27
:101FC000C202114488F80410C8F80C00C8B24000DE
:101FD00042F2BE0250FA81F0C0F6000232F8101050
:101FE00002EB400001EB810142884900808889B200
:101FF000D8F8203002EB8202C1F57A71520000EB72
:1020000080005963400091B22268C1F57A7180B2B4
:102010005163C0F57A703DE698F80420B1F57A7FF7
:1020200028BFC1F5FA61D0B2400042F2BE0450FAB6
:1020300082F0C0F6000434F8102048F21F564A43DC
:10204000C5F2EB16A2FB062304EB40004288808811
:102050004A434843A2FB0624A0FB0601C3F34F10EA
:10206000D8F82020C0F57A705063C4F34F1040F2C6
:10207000D804C2F200042268C0F57A705063C1F33C
:102080004F10C0F57A70002604E600BF72B6FEE776
:1020900072B6FEE7F1EE100A4FF6FF71C0F2C031E2
:1020A00020EA010040F04070E1EE100A70470000A5
:1020B0000000000000000102030406070809640094
:1020C0000000000032003200000000006400000048
:1020D0000000320032000000000064003200000006
:1020E000320021002100210008210008000000200A
:1020F00010000000EC01000818210008100000206A
:10210000A80700000C0200080100000010000000F9
:082110000024F40000000000AF
:040000050800018965
:00000001FF
